:020000040800F2
:1000000090210020D901000869490008FB4400083C
:1000100000000000000000000000000000000000E0
:100020000000000000000000000000006D49000812
:1000300000000000000000006B4900086F49000844
:10004000EB010008EB010008EB010008EB010008E0
:10005000EB010008EB010008EB010008951F000808
:10006000EB010008851F0008EB010008EB01000808
:10007000551E0008EB010008EB010008EB01000829
:10008000EB0100081D4A00082D4A0008000000008E
:10009000EB010008EB010008EB010008EB01000890
:1000A000EB010008EB010008EB010008EB01000880
:1000B00039500008EB010008EB010008EB010008D3
:1000C00000F002F800F05CF812A030C808382418DC
:1000D0002D18AC4201D100F053F80FCCA246AB462C
:1000E0000CA730CF2D1B083F3F197C427F1E544484
:1000F0002D090426F441641EAC4201D300F040F8FF
:100100000126334200D0FB1A3343984754465D46DC
:10011000DFE700007875000098750000103A02D300
:1001200078C878C1FAD8520701D330C830C101D598
:1001300004680C6070470000704700000023002432
:1001400000250026103A01D378C1FBD8520700D30E
:1001500030C100D50B60704710B5662902D106F09A
:100160001BFB10BD002010BD1FB501F01DFA0400DF
:100170000020002106F0F4F9E0601FBD10B510BDAD
:1001800001F0E0FD1146FFF7EFFF04F05BFF01F027
:10019000F8FD03B4FFF7F2FF03BC01F053FE0000CB
:1001A00070B505460C46164602E00FCC0FC5103E52
:1001B000102EFAD2082E02D303CC03C5083E042E1B
:1001C00007D301CC01C5361F03E021782970641CD8
:1001D0006D1C761EF9D270BD07488047074800475E
:1001E000FEE7FEE7FEE7FEE7FEE7FEE70448054917
:1001F000054A064B70470000194A0008C100000874
:10020000901B002090210020901D0020901D0020B8
:10021000FEB5044610460D46184373D0A6468C46DC
:100220000020A41A01469D4167D366460027012499
:100230003D46B61A9D4102D313463A4621246546EF
:1002400076462F04360C3E432D0CB61A9D4104D33E
:10025000150C1B042B4312041034654676462F06FA
:10026000360A3E432D0AB61A9D4104D3150E1B02D1
:100270002B4312020834654676462F0736093E4363
:100280002D09B61A9D4104D3150F1B012B431201F2
:10029000241D65467646AF07B6083E43AD08B61A3C
:1002A0009D4104D3950F9B002B439200A41C6546EF
:1002B0007646EF0776083E436D08B61A9D411AD37D
:1002C00092185B41641C16E0001876466546494169
:1002D000B71A9D410191009009D36046B11A984127
:1002E0008E468446009801990025401C6941DD072F
:1002F00052082A435B08641EE6D57246634603B083
:10030000F0BDFFE72046284307D00020C043014648
:10031000C046C04622462B46F1E700200146F7E7DB
:100320000FB41CB5074B06AA7B446946009005989C
:1003300001F0D9F80020694601F0E8F81CBC08BCBF
:1003400004B01847E111000070B5044685690068E3
:10035000C10601D5302600E02026C00707D070BDB9
:1003600062683046A1689047206A401C20626D1E7A
:10037000F6D570BD70B5044685690078C00707D111
:1003800070BD6268A16820209047206A401C2062EE
:100390006D1EF6D570BDF3B50446002081B0206215
:1003A0002046E168884700287AD0252802D0626874
:1003B000A16871E0E16820460025884706460020D4
:1003C000E0610746A0612A2E0AD0304606F0AAF85E
:1003D000002827D0B8000019303E0090866119E04F
:1003E0000298BA00121902C8916102902046E16891
:1003F0008847012F064617D1E06900281FDA202020
:1004000085431CE000980A218069484300998019BF
:10041000303888612046E1688847064606F082F851
:100420000028EFD1012F0AD02E2E08D12046E168F6
:1004300088470646202005437F1C022FC3DBA069A6
:10044000002803DA4042A06101200543E80701D0FB
:1004500010208543002E23D030464138192803D878
:100460000120C00205432036204625603146029A0D
:100470001546FFF771FE00280BD0012806D0ED1DB0
:10048000E808C000083002908AE709E02D1D0295B7
:1004900086E762683046A1689047206A401C7EE784
:1004A000206AFEBD30B5441C03E00178401C0029E1
:1004B0000DD08107F9D10B4BDD0104C8D11A91434E
:1004C0002940FAD0001B0A0603D0C01E30BD001B15
:1004D00030BD0A0401D0801E30BD0902FCD0401E90
:1004E00030BD000001010101D2B210B513029A180B
:1004F00013049A1800F001F810BD01E004C0091FB0
:100500000429FBD28B0701D50280801CC90700D0CB
:100510000270704700290BD0C30702D00270401C44
:10052000491E022904D3830702D50280801C891E3C
:10053000E3E70022EEE70022DFE7000000220309E4
:100540008B4273D3030A8B4258D3030B8B423CD3A9
:10055000030C8B4221D312E003460B437FD40022CD
:1005600043088B4274D303098B425FD3030A8B4247
:1005700044D3030B8B4228D3030C8B420DD30902C7
:10058000FF2212BA030C8B4202D31212090265D069
:10059000030B8B4219D300E0090AC30B8B4201D332
:1005A000CB03C01A5241830B8B4201D38B03C01A79
:1005B0005241430B8B4201D34B03C01A5241030BF0
:1005C0008B4201D30B03C01A5241C30A8B4201D3A1
:1005D000CB02C01A5241830A8B4201D38B02C01A4C
:1005E0005241430A8B4201D34B02C01A5241030AC3
:1005F0008B4201D30B02C01A5241CDD2C3098B42A8
:1006000001D3CB01C01A524183098B4201D38B0124
:10061000C01A524143098B4201D34B01C01A5241C7
:1006200003098B4201D30B01C01A5241C3088B420C
:1006300001D3CB00C01A524183088B4201D38B00F7
:10064000C01A524143088B4201D34B00C01A524199
:10065000411A00D201465241104670475DE0CA0F70
:1006600000D04942031000D3404253409C46002230
:1006700003098B422DD3030A8B4212D38901FC223A
:1006800012BA030A8B420CD3890192118B4208D310
:10069000890192118B4204D389013AD0921100E072
:1006A0008909C3098B4201D3CB01C01A5241830986
:1006B0008B4201D38B01C01A524143098B4201D3B3
:1006C0004B01C01A524103098B4201D30B01C01ADE
:1006D0005241C3088B4201D3CB00C01A5241830858
:1006E0008B4201D38B00C01A5241D9D243088B42AE
:1006F00001D34B00C01A5241411A00D20146524167
:10070000104663465B1001D34042002B00D549429E
:10071000704763465B1000D3404201B5044900288E
:1007200002DC491C084000E00846C046C04602BD45
:10073000FFFFFF7F70477047704700000246C80FF9
:10074000C00781434B0030B54B405B009B0D20D070
:100750001923DB06C91801231B05994220DB03245A
:10076000A40704251346AB400BD3002B04D1EB06A2
:1007700013409B00E34204D40124640700231219B0
:100780005941FF231B0599420BD2C9000143500F69
:1007900009E0CB0204D501430803024305D0054814
:1007A00030BDFF21C905084330BD084607210905B2
:1007B000884330BD0000C07FF0B5F94D0C091E091B
:1007C0002C402E402F468BB0A7437DD0B543FCD0A4
:1007D000002E7AD0002CFCD00D465D40ED0F254355
:1007E000AC1BFF25AD0464190894C502440DC90271
:1007F0002143500DDC0204430120C00701430443A0
:10080000D2020191200C110C00958C460104234664
:100810008B430A9161460904E24D8A430991010A1A
:100820007D4449198039097805464D4301266D18E4
:10083000F605751B6943C90C640B891C4C4364188D
:10084000B5012C1B250C2E04B4434C434D43210C05
:10085000691889090591009DE90701D00121C9079F
:1008600004912C4601996708CD072F434C08059D3C
:10087000E10B4D432D0C29466646754302950D4606
:1008800045432E46029D7D1BB44100950D465D43B8
:1008900001942C0C2F040D465543AE462D0C3D43C0
:1008A000029503947546049C2D04641B049406D29F
:1008B000029C039D641C002675410395029401ACC3
:1008C00070CC009F7D1B01E03EE162E1B441090470
:1008D0000095079101940599A4086143090C0C4601
:1008E0004443650BE7040C4666467443A646640B16
:1008F0003C43039502947446049DE4042C1B049429
:1009000006D2029C039D641C002675410395029447
:1009100001AC70CC009F7D1BB44101940C465C433C
:100920000095650FE7000C465443A646640F3C4310
:10093000039502947446049DE4002C1B049406D293
:10094000029C039D641C002675410395029401AC32
:1009500070CC009F7D1BB441AE09AF06049DC90059
:10096000AD092F43049DA406AD060495079D3443AD
:1009700069180791059DE10B4D432D0C29466646EC
:10098000754302950D4645432E46029D7D1BB4419D
:1009900000950D465D4301942C0C2F040D465543E4
:1009A000AE462D0C3D43029503947546049C2D04E0
:1009B000641B049406D2029C039D641C00267541AE
:1009C0000395029401AC70CC009F7D1BB44101944F
:1009D0008C050694079C890A611800950791019C73
:1009E0000599A4086143090C0D464543680BEF04C3
:1009F0000D46644665436C0B3C43049FED047D1B30
:100A0000AC4602D20025641C6841009E019D371B44
:100A100085410846584301950C46460FC50054438E
:100A2000600F28436546E4002C1B02D20025401CC1
:100A30006E41019D3F1AB5412846BD0980062843F5
:100A40008446A009BF064E020699A40676180743FD
:100A5000079D002068410A99079019430020099BCF
:100A600000906046FF1913434041E20F64003A438F
:100A7000A4460446D71A8C41A04203D90120009015
:100A800020463A46C70F941840416246D20F22438F
:100A9000644664000494009CBE466400D71AA446D1
:100AA000044602978C417746002F01D1A04204D919
:100AB0006046401C8446029A2046C40FA6469418FD
:100AC0004041049A0546D20F224364466400D31A7B
:100AD0008D417146002901D1A84202D928461A4603
:100AE000641C10430122002800D01643610200203C
:100AF000079B891904465C410223002C02DB49183C
:100B000013466441089DCE0A2D145D194B056705F7
:100B1000E10A2C050D1908993E43C9076940002BCD
:100B200008D0934006D30022761C5141002B01D1FE
:100B3000760876001C4A002D43DB154241D0AA43BB
:100B40003FD030460BB0F0BD06180D464D41174C56
:100B50007642AC411AD395181C465C41134A6D424B
:100B6000A24113D3012252054C00D4420AD15C00A9
:100B7000D4420BD04B4002D592021143E2E7490028
:100B80004908DFE75940C90FC90718E000200849A4
:100B9000D8E7054801420DD10342F7D0F2E7000043
:100BA0000000FF07845F00000000F07F0000E0FF0E
:100BB0000000F87F114859400143C0124140002015
:100BC000C0E70123089A9B069A4205DC03225207DC
:100BD0008918C90FC907B5E7052252078918074ABE
:100BE0001143D2125140ADE770B515461C4602467E
:100BF0000B4628462146FFF7DFFD70BDFFFFFF7F54
:100C00001F22030C02D10F22000402D0030E03D0D6
:100C100004E00020014670470002083A030F01D1AA
:100C20000001121F830F01D18000921E002801DBFA
:100C30004000521E120551184205C01241181046BC
:100C40007047C10FC90700D04042012292071143EB
:100C5000D6E701218907D3E7F0B58B4C0F0925466C
:100C600089B0BD437BD01D092646AE43FAD00E465F
:100C70005E402740F60F3E43254071D024012142BB
:100C8000FBD0FF24AD19A4042D1B039501252D05D0
:100C9000DB02DB0AC9022B43C90A29431E010901F1
:100CA000040F130F050121431701880B82039143A1
:100CB0002D098C46A90B1E438A039543B30B9A0357
:100CC00096433F09BA0B9403A74302962E467E43F0
:100CD0000497B6464E19D7190C460196544305970A
:100CE0007E43371B7646BF1B3601B646BE0B361910
:100CF00000967646BC043719009C01D3641C00940E
:100D00006400002F01D001263443029E049F7543E6
:100D100066467E430496760034196E0034190094BA
:100D2000029C019E1C196643751BAE4606946546DF
:100D30004519059C05956C43594375460891691AF8
:100D40000191049E01465143A41B0491611A009C29
:100D50000791E10605D061090122114302E072E02A
:100D60006EE06109089D00272C0A2D066918049D74
:100D70007C412A0A2D066918019D6241AC0DAD0225
:100D80006D185441079A910D920255196141029ACA
:100D9000644658435443069B059A5A43121A131B40
:100DA0009A0E9B015B187A41010B0005C318514153
:100DB000220A200644195A419A4200D2491C0120B5
:100DC0004002814203D315230226F64302E0142396
:100DD0000326F6432020C51AA9401746AF40DA4043
:100DE0000A4320460399D84009147318190551186D
:100DF000039A3843D2075140AC4009D001229440B5
:100E000006D30022401C5141002C01D14008400073
:100E10001E4A934212D3012203989206904207DBA6
:100E20000520400709181A480143C012414004E058
:100E3000032040070818C10FC907002009B0F0BD02
:100E40000020F107FAE705180C464C4111486D42A5
:100E5000A04115D394181A465A410E486442904155
:100E60000ED301204A004005824209D35A00824233
:100E700006D35940C90F084AC90700201143DDE7CE
:100E800000200649DAE700000000FF07FE07000027
:100E9000FFFFFF7F0000E0FF0000F07F0000F87F11
:100EA0000121C9050123411842001B06D3185B0E1E
:100EB0000AD0C1100722D206891840075242D142F7
:100EC00001D5520089187047090208D50146002A49
:100ED00003D0C10FC9070020704710467047420277
:100EE00002D0002002497047072109050143F4E7B9
:100EF0000000F87FF0B5FF252D04C609C209FF27C1
:100F000004462E400137CB093E4348402A402B403F
:100F10000746002A6BD0002B69D0AA4267D0AB42AB
:100F200065D0002800DA32460125ED0529432C431F
:100F300009022002090AD21A4B0C7F24E31A434CFF
:100F4000000A7C44E35C7D242404121914145B0021
:100F5000A218884201D3521C00E0400049420C46CE
:100F60005C4324115C43DB016415E318040A5C4311
:100F7000C502200D0C4644436419250A5D43230332
:100F8000EC0C0D46654300030019EB184C42A342DC
:100F900001D35B18401CD4052018002B07D05B0040
:100FA000C91804D3401C002901D1400840003F214A
:100FB00089048A4209D3002A08DC1106090F04D0EB
:100FC000032149074018C00FC007F0BD01224100AE
:100FD000120689187F2252069142F6D2052149074E
:100FE000C84201D59010F0BDFF20C005F0BD002F14
:100FF00000DA32461648AA4207D2AB4205D219029D
:10100000090E17D0F80FC007F0BDFF2563002D06AD
:10101000AB42F9D84900A942F6D8AB4201D1A94266
:10102000F2D0A94201D1002101E061004908D005B8
:101030000843F0BD1102090EFBD0FF200243D0058A
:10104000F0BD0A460146104654E70000E258000091
:101050000000C07F1F22030C02D10F2200041CD00D
:10106000030E01D10002083A030F01D10001121F43
:10107000830F01D18000921E002801DB4000521E28
:10108000D2055118021251181922904004D3491C5C
:10109000002801D14908490008467047C10FC90717
:1010A00000D04042012292071143D3E70121890772
:1010B000D0E710B500F07CFA006810BD10B504460A
:1010C00000F076FA046010BDFFB50C461E468FB0E6
:1010D00003CA089009914F007D0D00D16D1E0021BB
:1010E00008460020C0460321099A89050840002AC5
:1010F00003DA8200801840080840800D01280A9019
:1011000002DD0020C0430A90089807430DD0F04844
:10111000F049281848430714189800281DD0754234
:10112000291E1DDD0A9842421BE01898012802D0B2
:101130000020302104E00020F24305E02154401C4F
:10114000B042FBDB30460022189B002121540F994E
:101150008B600A60486013B0F0BDBD1B6D1CDFE7FB
:101160000A9A002900DA69420BA800F0A7FA0BAB33
:1011700007CB03AB07C30899099800F00BFB6B463C
:1011800007C30146D4480918002D00910BDDD24950
:1011900003980A9A49424018002303A9039068461D
:1011A00000F068FD08E003990A9A0023081803A9D3
:1011B0000390684600F008FD6B4607C30004000C6E
:1011C00003D00020C043410800E01046189A002ACE
:1011D00003D00022009215461EE0751E05D400F0D3
:1011E000EBF9303262556D1EF9D50122084307969E
:1011F00002D000227F1C04E02078302801D1002298
:101200007F1E002A069787D01EE0112D07DA00F016
:10121000D3F9303262556D1C02460A43F5D10843BA
:1012200003D00098002819D00EE00021681E05E0C8
:10123000235C625C63542254401E491C8142F7DBEC
:10124000A81B401E07950690079A18990020A054E5
:101250000F98079B069A81600CC07CE7112600203E
:10126000189059E7D21DF0B50D460446D10893B049
:10127000C90003C90C900D9105F03EF902460D9886
:10128000C00F01D02D2007E02068810701D52B2059
:1012900002E04007C00F4001032A0F9001D0072A47
:1012A00005DB03462946204600F0C4F90EE120780C
:1012B000800601D5E76900E006272846652D04D0A1
:1012C000662814D0672D69D12DE00020112F0090E1
:1012D00001DB112300E07B1C0CAA03A910A8FFF777
:1012E000F3FE1199002610987D1C0E9142E001201A
:1012F0003B460CAAC0070B900120009003A910A840
:10130000FFF7E2FE119D12981099002600280E9515
:1013100001D1781C0D18781B02D446427D1C761E24
:10132000E81B00903AE0012F00DA01270020112F7E
:10133000009001DD112300E03B460CAA03A910A890
:10134000FFF7C2FE11993D46109800260E912178B4
:1013500009070BD40E99A94200DA0D4603A9012D05
:1013600004DD4A19203AD27F302A06D0B84201DA89
:10137000011D04DA012100910FE06D1EEFE7002846
:1013800002DC86192D1A03E0411CA94200DD0D463E
:10139000801B401C00900120C0070B9020780007A4
:1013A00005D40098A84202DB0020C04300906946A3
:1013B0000020C8720B98012102AF0337C907884289
:1013C00025D0022010902B2011900B9800280BDACA
:1013D00040420B902D20119006E00B9800F09AFCF3
:1013E00030317F1E0B9039701099481E00291090E3
:1013F000F3DC0B980028F0D111987F1E38702088FC
:10140000000501D5452000E065207F1E387001A849
:10141000C01BC01D0B900F98002800D0012041195F
:101420000098C01709180B980818A169081A401EDF
:10143000A0612078C00602D42046FEF785FF0F98F1
:10144000002805D06268A1689047206A401C20628D
:101450002078C00625D52046FEF776FF21E0002E35
:1014600007DB0E98B04204DD03A86268805DA168C6
:1014700002E06268A16830209047206A761C401C18
:1014800020620098401E002800900AD100F08CF8DD
:10149000C06862680168405CA1689047206A401C8F
:1014A000206228466D1E0028D9DC07E06268387883
:1014B000A1687F1C9047206A401C20620B99481E3F
:1014C00000290B90F2DC2046FEF754FF032042E691
:1014D00001FCFFFF104D0000E1DFFFFF01694A1C26
:1014E00002610878704700B58FB002910021059124
:1014F0000549019379440391114604906846FEF72B
:101500004AFF0FB000BD0000E5FFFFFF0A68107042
:10151000521C0A607047000030B5C30D1906214AFD
:10152000090E31D0FF292FD000283ADB01025002EA
:10153000014301207D33C34000D2490801208007C8
:101540001724091A2406490882102343FF252D0673
:101550004C00211A04D4891A02D45400201800E047
:10156000214652085B19F3D51A220446944007D34A
:1015700082068A4203D180218030884300E0803097
:10158000C009D905081830BDFF2904D04100FAD0A0
:10159000C00FC00730BD410201D0104630BD002849
:1015A000FCDAFAE70000C07F0048704738000020EE
:1015B00000487047180000200B4670B502468907A6
:1015C0008008084319469D08141AA94125090807EF
:1015D000054308092C194841250A01060D43010A53
:1015E0002C194141200C0D0428430D0C00194D41CC
:1015F000002140194D41C00869070843E908840FDC
:101600008D002543840024184D4124196D41121B7F
:10161000AB4107E00925ED432C1152196341002429
:10162000401C61411C460A250026551BB441F1D2DD
:1016300070BD0000F8B51F46044601230068DB02B8
:10164000032601461840072A05DB002801D017A50C
:1016500006E017A504E0002801D016A500E016A5B5
:10166000102081432160A069C01E002FA06101D01D
:10167000401EA0612046FEF767FE002F09D03846C5
:101680006268A1689047206A401C2062C01C2062EA
:1016900006E0206AFAE762682878A1686D1C904726
:1016A000761EF8D22046FEF765FEF8BD4E414E008C
:1016B0006E616E00494E4600696E6600F7B51646CB
:1016C0008AB0334878446C4603467C33C06F5A680E
:1016D0009B680DC42E487844763003AC0DC80DC409
:1016E0003720C001081837211B30FEF735FF0546AB
:1016F0000C46803D1B3C02D56442012000E00020E6
:101700000027099010E0E0070CD00C202049784316
:10171000794432464C3941186846012300F054FAA6
:101720006B4607C364107F1C002CECD1184F7F441C
:101730002E3F16E0E80712D02001C0190EC806910E
:10174000089307920068F04201D198190890324638
:10175000012306A903A800F037FA03AB07C36D10F5
:10176000641C002DE6D10998002806D0324669464F
:10177000012303A800F07EFA05E001233246694602
:1017800003A800F021FA0A9B07C30DB0F0BD0000CA
:10179000A0510000034640000A4610B5400D0BD092
:1017A0000121C9070F24A40200191C036408214366
:1017B000540D2143D20207E000210120F2E7D40FAB
:1017C000490021435200401E0029F8DADB0FDB07F5
:1017D000184310BDFFB50D46144685B048685168E2
:1017E00004F071FE00910190A868A16804F06BFEFE
:1017F00002910390A868616804F065FE029A1218CD
:101800008242029201D2012000E00020019A0B18CE
:10181000D2180028019202D08A4202D903E08A42FB
:1018200001D2012000E000200099081800906868AB
:10183000A16804F048FE029A12188242029201D274
:10184000012000E00020019A0B18D2180028019214
:1018500002D08A4202D903E08A4201D2012000E08C
:10186000002000990818009028682168400049006D
:10187000400849084018FA49471814E00199400007
:10188000C90F08430090019802994000C90F08430E
:101890000190029803994000C90F084302900398F1
:1018A00040007F1E039000980028E7DA089800287F
:1018B00001D0EC4E00E00026B74201DA012000E042
:1018C0000020002804902AD0F71BF806C00E15D07F
:1018D000029B2021091A039A8B401A430392029A11
:1018E000019BC2408B401A430292019A009BC24066
:1018F0008B4000991A430192C14000917B110DD099
:101900006F460320C11A03D500218200B95003E0BD
:101910008A008100BA587A50401EF3D537460398A2
:101920000299002800D00120014308980291002864
:1019300008460CD0002800D001200199019A4905E1
:1019400008430121D20AC902D202019200E001211A
:101950000E9B0122D207012B02D0002B03D013E0F3
:10196000002807D120E0904204D890420CD1019B7E
:101970000B4209D0019B5918019105D10099491CCE
:10198000009101D17F1C009200280DD01021084643
:101990000020C0460498002806D00F98002803D0E5
:1019A000082108460020C04628682168019B009A4B
:1019B0004840C10F0598C90739430EC009B0F0BDB2
:1019C000FFB587B0099A08980899536892684068EB
:1019D000896896460022039317469446089A12682F
:1019E0005300099A5B081268520052089A1A9E4BDB
:1019F000D4180A9A002A01D0352200E0402206922B
:101A00000022012315460492DB07059324E0002DF4
:101A100005D175460346039E4D1BB34109D3754658
:101A20006646039B491B049D9841059B7519AC466E
:101A30005F4163463B4308D0059B049EDD07760863
:101A40002E435B080496059301E0521E641EC50FE9
:101A5000ED0749184041521C069B9A42D7DB002DE6
:101A600004D17546039A6B1A824101D203200CE01F
:101A7000039A0B466B404240134303D0014303D00B
:101A8000012002E0022000E00020614601910021D7
:101A9000009702910A99002905D06146400201434E
:101AA000704B019102E08007002302909C4201DA12
:101AB000012000E0002007003AD01A1BD006C00E1B
:101AC00015D0029D2021019C091AC5408C40254358
:101AD000029C8C4000D001242543019C0295009D6E
:101AE000C4408D4000992C430194C1400091541191
:101AF0001DD06D460221002202290CD10320001BBB
:101B000007E0002804DB8600AE59002E00D0012239
:101B1000401C0328F5DB081B02D588002A5004E08E
:101B20008000285810438A00A850491EE3D51C465F
:101B30000A98002802980CD0002800D001200199B2
:101B4000019A490508430121D20AC902D202019231
:101B500000E00121109B0122D207012B02D0002BB3
:101B600003D013E0002807D11FE0904204D8904230
:101B70000CD1019B0B4209D0019B5918019105D151
:101B80000099491C009101D1641C009200280CD0DE
:101B9000102108460020C046002F06D011980028CA
:101BA00003D0082108460020C04608980999019AE8
:101BB000009B006809684840C10F0798C907214386
:101BC00082600AC00BB0F0BD00B585B001930092F1
:101BD0000A460146002302A8FFF7FCFD02A807C839
:101BE00005B000BDFFB50A461F4685B007990193B1
:101BF00001230091014602A8FFF7ECFD029903982A
:101C0000049ECA0F4900D20700920F22490892028F
:101C10008C1A0021002800DB0C46450013486D0893
:101C2000844214D3079A002A04DA441E0026104D79
:101C3000F64302E004460D460E46102108460020F9
:101C4000C046002F03D0042108460020C0462005CE
:101C5000E90A0843009908436905F20A1143ADE611
:101C600002C0FFFF013C0000FF3F0000FF07000033
:101C7000FFFFFF7F00B585B0019300920A46014641
:101C8000002302A8FFF79CFE02A807C8A8E7FFB53B
:101C90000A461F4685B0079901930123009101462A
:101CA00002A8FFF78DFE02990398049ECA0F49000F
:101CB000D20700920F22490892028C1A00210028B4
:101CC00000DB0C46450011486D08844214D3079A86
:101CD000002A04DA441E00260D4DF64302E00446B5
:101CE0000D460E46102108460020C046002F03D0A6
:101CF000042108460020C0462005E90A084300994F
:101D000008436905F20A114358E60000FF07000086
:101D1000FFFFFF7F01468008081A02091018020A17
:101D20001018020C1018C008820012185200891AEC
:101D300001E0401C0A390A29FBD27047004870476D
:101D4000180000207546FFF7F9FFAE46050069460A
:101D50005346C008C000854618B020B5FEF746FAC5
:101D600060BCB64600260027C0C5C0C5C0C5C0C5FA
:101D7000C0C5C0C5C0C5C0C5403D490849008D4665
:101D8000704710B50446C046C0462046FEF701FA2B
:101D900010BD000082078B079A423FD170B5920FA9
:101DA0000AD0032402780B78401C491C002A33D047
:101DB0009A4231D12042F5D1214EF40104C808C91C
:101DC000951B9543254018D19A420FD104C808C9E4
:101DD000951B9543254010D19A4207D104C808C9E4
:101DE000951B9543254008D19A42E7D012BA1BBAF9
:101DF00001209A4200D2404270BD12BA1BBA2DBADD
:101E000018241000E0401900E140401A05D12E00CE
:101E1000E64002D1083CF4D1D01A70BD02780B78AC
:101E2000401C491C002A09D09A4207D102780B783D
:101E3000401C491C002A01D09A42EFD0D01A7047AA
:101E40000101010101491820ABBEFEE72600020096
:101E50007047000080B5024800F020F980BDC04600
:101E6000A4160020B0B50146806A426D50231A4284
:101E700004D0C06C426B08469047B0BD01214A02B5
:101E8000436D134343650268D3681B059B0F02D063
:101E900000F0FAF8B0BD2023C45C002CF8D114681F
:101EA0002407F5D5946864070AD40346543354686C
:101EB0000C25AC435460FF2402341A68A24305E0A9
:101EC000426D1A43426503465833826D0A431A60D5
:101ED00000F0DAF8B0BD80B5806A416D40220A4357
:101EE0004265816D04220A43826500F0D6F880BD08
:101EF00080B5806A00F0D0F880BD000070B582B077
:101F000004460068816803220A40012A02D1016860
:101F1000C90731D181681A4A114208D0606D102179
:101F200001436165A06D01252843A06525E0816816
:101F300001220A43826052480068524904F0C8F9FD
:101F400001900198002802D00198401EF8E700F0A7
:101F5000D1FC064620680068002501E02068006882
:101F6000C0070AD100F0C6FC801B0B28F6D32068FE
:101F70000068C007F2D1D1E70025284602B070BD45
:101F80001700008080B5024800F0C6FA80BDC04648
:101F90000017002080B50120400300F0E1FB80BD68
:101FA000EFF3108072B6FEE770B582B002465020A3
:101FB000105C012802D1022002B070BD14465034DA
:101FC0000120207013689D686D0711D40E68496860
:101FD00029483040DC4D294A91420ED1996A81430B
:101FE000996270031CD4B00321D4F00326D42AE0F4
:101FF000516D20230B43536526E0996A0143996292
:10200000700325D4B00304D501208005296801435D
:102010002960F00317D5012001062868084311E064
:102020000120C005296881432960B003DDD5012066
:102030008005296881432960F00304D50120010649
:1020400028688843286000200021217002B070BDFC
:102050000120C00529680143296009480068094931
:1020600004F036F90A214143019101980028C9D0B2
:102070000198401E0190F8E7FFFF070001100000E3
:102080000C00002040420F0080B5024803F0A2FF80
:1020900080BDC046EC1A002070477047F0B581B093
:1020A00004460068056804212A460A405342534109
:1020B000466831404A424A411A430123012A0093AB
:1020C00009D108223240514251412A071A4600D50F
:1020D0000A46002A32D121465431626DD20604D418
:1020E000012252020B6813430B60C2681205920F63
:1020F0001AD12A0718D52022A35C002B14D183689B
:102100005B0708D442680C239A434260FF220232E4
:102110000868904305E0606D1043606521465831C2
:10212000A06D012202430A602046FFF7ADFFA069BF
:102130000128009B02D020680C21016080273146D5
:102140003940484248412906194600D50146002930
:102150000AD101200004616D01436165204600F051
:10216000F7F8009B2068076010273E4070427041DE
:10217000E90603D4002B04D001B0F0BD0346002BC8
:10218000FAD1206B002803D02068C068C00708D0AF
:10219000A06D02210143A165206807602046FFF77A
:1021A0007CFF2068076001B0F0BD0000F0B583B08F
:1021B0000125002800D1C4E0044606465036406D93
:1021C000002805D100203070A065204600F0C2F83C
:1021D000606DC00625D420688168490721D481211B
:1021E0004900626D8A43911C616581680322114038
:1021F000554B012902D10168C9072CD1616801251D
:10220000EE07B14205D0AD07A94202D09507A94219
:102210000ED1920705699543056102690A4302617F
:1022200011E000203070606D10210143616588E08D
:102230000269AA4302610F2292041D6895431D6042
:102240001A680A431A60C16818229143C160A168E4
:10225000C2680A43C2602246203201214D061E6830
:10226000AE431E60656B6D061E682E431E6083685C
:10227000DB0003D40B0785681D4385600291C368AA
:10228000324D1D40C56023699B1E5D425D41AB0020
:10229000E6681E4315786B033343266B1E43137B9E
:1022A0005B003343A669E769B6031E43FB03334370
:1022B000C6681E43C660676A06460C36FF23019354
:1022C000C2339F4204D03368A16A19433943316055
:1022D00051780129029F0DD1002D07D0616D202278
:1022E0000A436265264658363A4600E03A043168A9
:1022F000114331600269E16B01290ED10199890016
:102300008A430261234640330ECB0A431A430169D4
:102310001143016102693A4303E0D10702D0026927
:10232000BA4302614169072291434161A16B42694D
:102330000A4342610025A565606D38430221884348
:102340006065284603B0F0BD082701401902FEFF72
:1023500070470000F0B587B0044600260696059643
:1023600004960396029600681E49884201D007B081
:10237000F0BD1D488168012702977A020A438260F6
:102380000168022211430160006810400190049628
:10239000032003900198154802A900F0EDF9144DAF
:1023A0002E62B80239028022124B48C52E606E6040
:1023B000AA60E96028616E61083D284600F016F9C0
:1023C000002801D0FFF7ECFDAC62E5640C2400218D
:1023D00020460A4600F014FF204600F005FF07B033
:1023E000F0BDC046002401402C1002400004005003
:1023F0000017002008000240F0B583B004460068D2
:10240000836802275B073AD45023E35C012B36D064
:102410002546503501262E70C3683343C360E069FA
:1024200001280292019103D10027002F27D105E056
:102430002046FFF763FD0746002F20D1606D11494C
:1024400001403002081860650020A06521681C2248
:102450000A602870E06C0C4A0C4B0D4DC56203639A
:1024600042634A68102313434B604031019A029B38
:1024700000F00EF92068816804220A438260384621
:1024800003B0F0BDFEF0FFFFD71E0008F11E0008EC
:10249000651E000810B5014624314A78022A12D17F
:1024A000026813680E24A343136013680124A34336
:1024B0001360026C406C1C2303402046984050601F
:1024C0004C70002002E00422C263012000220A7046
:1024D00010BDB0B5014624314A78022A18D10268ED
:1024E00013680E24A343136013680125AB431360E4
:1024F000026C436C1C241C402B46A34053600024F8
:102500000C704D70816B002900D088472046B0BD0B
:102510000421C1630120B0BDF0B585B0016C039109
:102520000C68066831680425019129404A424A41F5
:102530000490416C1C230B402F469F403946029467
:1025400021404C424C4114432FD0009601200227D9
:10255000019E314639404D424D419F40029C2742E9
:102560000246014600D02946049805462435002934
:102570002AD008210E4077427741DC40210700D560
:102580003A46002A1ED1009C22680E218A4322600E
:10259000012211469940039B5960C26300212970B2
:1025A0006A70416B00290CD10CE03068800602D4BF
:1025B0003068A8433060039847600498016B002995
:1025C00000D0884705B0F0BD009B1968890605D486
:1025D0001A680A218A431A60012169700021297052
:1025E00003994F60C16A0029EBD1EBE7F0B585B0E4
:1025F000002841D004460546243502206870204852
:10260000206426681F483018142103F061FE800002
:102610000090606431681C4B0B40A268E168276938
:1026200060690190A0690290E0690390206A0490BB
:102630001943394301980143029801430398014328
:1026400004980143114331600121880382420DD077
:102650001C20009E06400F20B0400C4A13688343A4
:1026600013606068B0401368034313600020E063A8
:102670002870697005B0F0BD012005B0F0BDC046FE
:1026800000000240F8FFFDBF0F80FFFFA8000240DE
:10269000F0B582B004462420255C0220012D2AD00A
:1026A000019226462436012232707778012F20D1FC
:1026B000022070700020E063266837689743376017
:1026C000256C0095676C1C253D401746AF40009D6A
:1026D0006F607360A368102B019F00D00F46B76036
:1026E000102B00D00199F160216B002905D00E213B
:1026F00008E00021317002B0F0BD31680423994335
:1027000031600A2133680B43336031681143316013
:1027100002B0F0BDB0B5044600F0ECF80546601C10
:1027200002D004480078041900F0E4F8401BA042ED
:10273000FAD3B0BD1000002080B5012149038842C2
:1027400008D105480178491E4A1E9141017003488D
:1027500003F028FC80BDC04608000020EC1A0020D1
:1027600080B504490A68024202D00860FFF7E4FF1E
:1027700080BDC04614040140F0B587B002900691B8
:102780000D68002D00D1A2E05248029A824201D089
:10279000062000E005200B2109075118890A93053E
:1027A00059180091052900D3009000273C463E4669
:1027B0002A460BE010432860761C069802681046F3
:1027C000F0403F1DA41C002800D180E001210846F4
:1027D000B0400240F0D00391049706994968032560
:1027E0000B4605952B405D1E012D12D8059DA54079
:1027F0000192029A9768AF43069DED68A5403D435C
:102800009560C906C90FB140556885430D435560B1
:10281000019A032B029F059D1AD02846A040F96813
:10282000814306988068A0400843F860022B0FD1CE
:102830001C20049908400F218140F3089B00FB18DD
:102840001D6A8D430699096981402943059D1962D6
:102850002846A04039688143069840688303284091
:10286000A04008433860980F049F039BA4D01B49E5
:102870000868184308600C2038400F218140334617
:10288000AB43174D5D598D4300998140294314484E
:102890001950114DA86806994B68D90201D510430B
:1028A00000E09043A860E868990201D5104300E079
:1028B0009043E8606868990301D5104300E09043B5
:1028C00068602868D90300D574E7904373E707B0C0
:1028D000F0BDC046001C005000040140341002400E
:1028E00008000140002A02D0182281507047282297
:1028F00081507047014800687047C046801B002027
:10290000B0B50246034640335C780220202C17D134
:102910001C78012C14D024205870106802680124FF
:10292000A2430260220305689543056002680A43DA
:102930000260016821430160002018702021597055
:10294000B0BDB0B50246034640335C780220202C6F
:1029500017D11C78012C14D02420587010680268FC
:102960000124A24302600F22120205689543090266
:102970002943016001682143016000201870202173
:102980005970B0BDF0B581B0002820D0044605468E
:1029900040356878002804D100202870204600F0D7
:1029A0008FFB242068702068026801218A4302603E
:1029B0000F2212066368934303618368184A134029
:1029C0008360E368012B05D02126B60203E00120D5
:1029D00001B0F0BDCE03A76837438760022B01D159
:1029E000CB02436043680F4E1E434660C3681340EA
:1029F000C360226963691343A26912021A43C26069
:102A0000E269236A1343036002680A4302600020FC
:102A10006064202169702063A87001B0F0BDC046D9
:102A2000FF7FFFFF00800002F0B585B00546044639
:102A3000403466780220202E00D0CFE02678012E88
:102A400000D1CBE001930292049101200390207009
:102A5000FFF750FF06462868806900041AD4222038
:102A600060701020A0700021696401986885029848
:102A700068626963688D000AD94F03911FD0FF20F7
:102A800028850499394028684368D64A1A40031DAE
:102A9000564821E00398C70303E02868806938425C
:102AA000DDD0FFF727FF801B1A28F6D3286880693E
:102AB0003842F2D0686C20210843686489E0688D50
:102AC00028852B685A68C7491140049A3A40C0B219
:102AD000000482181B1D44480A9F114301431960DA
:102AE000688D002854D00498BD490840049012E035
:102AF000698D29852A685068BD4B1840C9B2090400
:102B0000049BC91801235B06121D0843184310607B
:102B1000688D00283CD028463946324601F088FDB1
:102B200000285DD1686A2968496A0170688D401E75
:102B30006885686A401C6862288D401E2885698DFA
:102B40000029E5D0000404D0E2E728688069000687
:102B500031D528688069000609D4781CF9D0FFF7C0
:102B6000C9FE002FF1D0801BB842F2D9EDE7688D85
:102B7000000ABDD0FF202885286841689C4A114082
:102B8000021D04989B4BC0E728688069800612D517
:102B900028688069800615D428463946324601F0F7
:102BA000ADFC00281CD1FFF7A5FE002FECD0801B48
:102BB000B842EDD9E8E7686C202108436864617089
:102BC000012008E028682021C16142688A4B134037
:102BD00043606170039800212170A17005B0F0BDC1
:102BE000012005B0F0BDC046002400020024FF0112
:102BF000F0B585B017460446054640356A78022090
:102C0000202A00D0EAE02A78012A00D1E6E00293E7
:102C100004910120039501902870FFF76BFE064692
:102C20002068806900041AD421200399487010207C
:102C30008870002161640298608567626163608DBD
:102C4000000A6748009123D0FF21218504990140A3
:102C500023685D68634A2A401B1D644D25E0019886
:102C6000C50303E0206880692842DDD0FFF742FEFB
:102C7000801B1A28F6D3206880692842F2D0606C45
:102C80002021084360640398417001460198A2E046
:102C9000628D228523685D6852492940049D054064
:102CA000D2B2120452191B1D4F4D0A9F11432943E2
:102CB0001960618D002964D0049901400491FD4D93
:102CC00003E02068806980077DD5206880698007DF
:102CD00010D420463946324601F010FC002863D15A
:102CE000781CF2D0FFF706FE002FEAD0801BB84216
:102CF000EBD9E6E72068616A0A788262628D521E2B
:102D00006285491C6162218D491E2185628D002AE0
:102D10002FD0090405D02CE0206880690006AED5CC
:102D200020688069000609D4781CF9D0FFF7E2FD1D
:102D3000002FF1D0801BB842F2D9EDE7608D000A78
:102D400008D0FF202085206841682940021D049892
:102D5000D94B0BE0618D2185226850682840C9B2AB
:102D60000904049BC91801235B06121D084318437C
:102D70001060608D0028A8D103E02068806980067B
:102D800021D520688069800611D420463946324614
:102D900001F0B4FB002807D1FFF7ACFD002FECD009
:102DA000801BB842EDD9E8E7012005B0F0BD2068EE
:102DB0002021C1614268C14B1340436003984170B8
:102DC0000146009807E0606C202108436064039886
:102DD00041700146012000220A708A7005B0F0BDE2
:102DE000FF030000009800FC002000020020FF010B
:102DF000009C00FC0000FF0100E800FEF0B587B079
:102E000005460646403674780220202C09D10C9CD9
:102E1000002C08D00D9F002F05D005973778012F83
:102E200006D107B0F0BD01204102696407B0F0BDD2
:102E30000293019206910120039004963070FFF7EF
:102E400059FD07462868806900045DD40E9E212044
:102E500004994870402088700020009068640598AC
:102E600068859148069901400298C0B20004069115
:102E7000401829684A688D4B1340C0188C4A801846
:102E800048606C62009C6C63886906E02868806911
:102E9000800700D4FAE028688069800711D42846AA
:102EA00031463A4601F02AFB002800D0F6E0701CBB
:102EB000F1D0FFF71FFD002EE8D0C01BB042EAD9C9
:102EC000E4E728680299012939D00199090A816249
:102ED00005E028688069800700D4D7E02868806909
:102EE00080072BD4284631463A4601F007FB0028DC
:102EF00000D0D3E0701CF1D0FFF7FCFC002EE8D02E
:102F0000C01BB042EAD9E4E70398C60303E028688F
:102F1000806930429AD0FFF7EDFCC01B1A28F6D327
:102F2000286880693042F2D0686C202108436864C8
:102F3000049A5170002010709070B1E028680199D7
:102F4000C9B2816204E028688069000600D49DE06F
:102F500028688069000609D4701CF9D0FFF7CAFC04
:102F6000002EF0D0C01BB042F2D9ECE7688D000A09
:102F7000504A07D0FF202885296848681040091D5D
:102F80004D4A0BE0688D2885296813464A681A4027
:102F9000C0B20004104301225206091D1043069AD4
:102FA0001043086003E0286880698007BCD5286862
:102FB0008069800710D4284631463A4601F09EFACF
:102FC00000286DD1701CF2D0FFF794FC002EEAD0DF
:102FD000C01BB042EBD9E6E72868696A0A788262CA
:102FE0006A8D521E6A85491C6962298D491E298590
:102FF0006A8D002A30D0090405D02DE02868806948
:10300000000691D528688069000609D4701CF9D0A3
:10301000FFF770FC002EF1D0C01BB042F2D9EDE7F3
:10302000688D000A08D0FF20288529684868214A51
:103030001040091D204A0BE0688D288529684A68E0
:103040001C4B1A40C0B20004104301225206091D55
:103050001043069A10430860688D0028A7D12846BF
:1030600031463A4601F03AFB00280398049C00D010
:10307000D7E628682021C1614268104B13404360A5
:10308000617000982070A07007B0F0BD686C2021BE
:103090000843686404984170047084700498047054
:1030A000039807B0F0BDC046FF030000009800FC85
:1030B00000200001009C00FC0000FF0100E800FE71
:1030C000B0B586B000210591049103910291019160
:1030D0000068194C194A904211D0194A904228D1DF
:1030E0002068022210432060206810400090009861
:1030F0000120450503200202134804230CE0206848
:1031000004221043206020681040009000980120A5
:1031100085070C4807230322059303230493039197
:1031200012210291019201A9FFF726FBE0682843D2
:10313000E06006B0B0BDC0462C10024000780040F0
:103140000054004000080050000400501D48007862
:1031500002490A68101808607047C046801B0020AA
:1031600010B50848016840220A4302600024204646
:1031700000F00AF8002801D0012010BD00F028F866
:10318000204610BD00200240B0B504467D20C0009E
:103190000C49097803F09CF801460B48006803F0DD
:1031A00097F800F071FD0125032C09D8002807D1FC
:1031B0000025E84321462A4600F022F8034804602F
:1031C0002846B0BD100000200C0000201400002094
:1031D00004480168012211430160110742680A4353
:1031E0004260704734100240002805D41F21084077
:1031F00001218140014801607047C04600E100E0C4
:10320000002805D40322034693430A4A9A1803E090
:103210000C220240064BD2188007C00E8901C9B2A9
:103220008140FF2383401068984308431060704733
:1032300014ED00E000E400E0F0B589B001252F02B4
:103240000268EB02194620317F4C0A4200D19EE011
:10325000079308902907143C20680840069002D183
:1032600020680843206001940291784C206838421D
:103270000FD1206838432060FFF73CFB06462068EA
:10328000384206D1FFF736FB801B6428F7D90325A7
:103290009BE0049703273E056B4C20464C38059075
:1032A00001683140089B58680246039632400097F7
:1032B0003E04914209D102463240B2420DD19A6891
:1032C000039B1A40914204D107E001463140B142CC
:1032D00003D105990968890377D461683140049F57
:1032E0001FD03040814203D008980078800609D46E
:1032F000089880683040814213D008980068079988
:1033000008420ED0504B5868E9045A680A435A6084
:103310005A688A435A600146B1435960384200D026
:1033200082E00898056807990D42474C12D08268E0
:1033300011463140B1420AD10398024003231B05D4
:10334000059804689C43144304603F4C08986268E5
:103350000A436260A90612D541680C463440B44263
:1033600008D1039A114003221205059D2B6893434F
:103370000B432B60344A516821431446516006992F
:10338000002904D1019B1968029A914319600368CE
:10339000D9071DD1990723D4590729D4190730D447
:1033A0003B4237D1590606D50121890622688A4356
:1033B000416A114321600025190606D503218A04BC
:1033C00021689143006A08432060284609B0F0BD97
:1033D000216803229143C2680A4322609907DBD522
:1033E00021680C22914302690A4322605907D5D50E
:1033F0000321890222688A43416911432160190728
:10340000CED50321090322688A43816911432160D3
:103410003B42C7D00321090422688A43C169114392
:1034200021605906C0D4C6E7FFF764FA05468A4C06
:1034300005484068800500D573E7FFF75BFA401B3D
:10344000A042F5D9009DC0E74C100240007000403A
:10345000F0B583B00290002844D00E467D48006845
:10346000012101910840B04214D27A49086801252F
:10347000A84330430860784CFFF73CFA074675488C
:1034800000682840B04205D0FFF734FAC01BA042C4
:10349000F5D924E00298006881077D4D06D529689A
:1034A000F0229143029A92680A432A60C0071CD115
:1034B0006848006801273840B04225D96549086846
:1034C000B8430860644CFFF715FA05466148006888
:1034D000C00719D0FFF70EFA401BA042F6D903200F
:1034E00003B0F0BD012003B0F0BD02984268294648
:1034F0000C39012A32D0032A74D0022A77D1096804
:103500008903019877D52DE0029800684107604C47
:1035100007D50721090222688A430299C968114325
:103520002160000708D50720C00221688143029866
:103530000069C0000843206021680807820F6D48B9
:103540007A441279520097440158765F3804214634
:10355000083909680904490F88406CE0096849077F
:10356000019848D5296803200190814311432960BF
:10357000FFF7C0F9074602984068374C032820D06F
:10358000022829D001280AD128680C2101400429E9
:103590008ED0FFF7AFF9C01BA042F5D909E028682B
:1035A0000007800F00D183E7FFF7A4F9C01BA042FA
:1035B000F5D9019803B0F0BDFFF79CF9C01BA042FC
:1035C000F7D828680C2101400C29F5D170E7FFF7E6
:1035D00091F9C01BA042ECD828680C2101400829B1
:1035E000F5D165E7096889010198BBD403E0096852
:1035F00089050198B6D403B0F0BD20460C380068A8
:10360000C00612D53D4816E08A02120F3A4B9A5C6A
:103610000902890F491C2368DB0309D420460C38B2
:103620000068C00603D4364802E0354803E033485A
:10363000504302F04DFE21680906090F074A515C0C
:10364000C8401249086006480068FFF79DFD03B0B6
:10365000F0BDC0460020024088130000FC6800084E
:103660001400002009480068094909684905490F04
:10367000084A515CC840704704480068044909681A
:103680008904490F034A515CC84070470C00002070
:103690000C1002400C69000810B5814AD168080777
:1036A000830F14487B441B795B009F440108070D7E
:1036B0000120000451680904490F884010BD1068BA
:1036C000C00610D50D4810BD8B021B0F0A4CE35CE1
:1036D0000902890F491CD468E40307D41068C006A6
:1036E00003D4074802E0064810BD0448584302F0DE
:1036F000EFFD10BD00127A007076000800093D0051
:103700000024F400F0B589B0002856D0644EF1686A
:103710000C220A400692012105910904F7680491E0
:103720000F4007900078C00710D00698082806D0F0
:1037300006980C2800D0D5E0002F00D1D2E03068E8
:10374000800303D507984068002852D00798007876
:10375000800735D407980078C0064DD407980078C4
:10376000000765D407990878400700D59AE00878E3
:10377000800600D517E10798846A002C1AD00698B5
:103780000C2800D063E1012C33D0F068049A024089
:10379000079BD96A8A422CD10F21890401401A6BF8
:1037A000914226D1032189050840596B884205982A
:1037B00000D053E2002009B0F0BD012009B0F0BDF7
:1037C000079BD868810604D53168202211433160F7
:1037D00090430699042906D006990C2900D0A2E04E
:1037E000002F00D09FE03168002838D1042211401A
:1037F00035D0059809B0F0BD0698002800D1A8E0A2
:1038000030680799C969002900D1FCE001210A024A
:10381000104330604C02FFF76DF8054630682042D7
:1038200000D003E1FFF766F8401B0228F6D913E049
:10383000306D07994969002900D1D3E0012108437F
:103840003065FFF757F80546306D80078AD4FFF7DB
:1038500051F8401B0228F7D9032009B0F0BD1F2101
:10386000090272688A43196909021143716031685B
:103870000922914301433160F1680807820FF8483B
:103880005200C0467A4492885200974403002B01AC
:10389000D801310170680004410F04988840CEE1DE
:1038A0000010024001221107B06B0840019002D1C4
:1038B000B06B0843B063009103921702EF4C20688D
:1038C000C0051DD4206838432060FFF713F8054673
:1038D0002068384214D1FFF70DF8411B03206429FA
:1038E000F6D9BBE10798446805200004844200D162
:1038F000C4E004998C4200D0C9E030680843D1E0AC
:10390000079881680029029100D134E10520000266
:103910008142039C00D136E1B94200D137E1306DDC
:10392000B84330652BE13168002800D1F2E009226C
:10393000914301433160FEF7DDFF054630684007E3
:1039400000D50EE1FEF7D6FF411B03200229F5D971
:1039500084E130688005079B03D5D869002800D131
:1039600047E70720400371688143586A014371604B
:10397000FF21090672688A43196A0906891871606D
:10398000400B04998140F0680006000FB84A105CB3
:10399000C140B8480160B8480068FFF7F5FB00284F
:1039A00000D05BE1DAE6B06807998969002900D1A7
:1039B000C1E001210843B060706B084370634803A5
:1039C000B0490A6802430A60FEF794FF0546B068F2
:1039D000800700D5CFE6FEF78DFF411B03200229AB
:1039E000F5D93BE1012188433065FEF783FF0546A9
:1039F000306D800700D4B5E6FEF77CFF411B032045
:103A00000229F5D92AE101210A02904330604C02D3
:103A1000FEF770FF05463068204200D19EE6FEF7B3
:103A200069FF411B03200229F5D917E10720400354
:103A300071688143079A506A08437060FF2000064E
:103A400071688143106A00064018706086E601279D
:103A50003806316881433160FEF74CFF0546022C81
:103A600000D0BCE07F063068384200D1C5E0FEF7E8
:103A700041FF411B03200229F5D9EFE0059880049E
:103A80003168014331603068049908430AE03068C6
:103A90008843306030680840089008980598810491
:103AA000306888433060FEF725FF0546002C0CD0B7
:103AB000059844043068204200D047E6FEF71AFF1C
:103AC000411B03206429F5D9C8E0059844043068F7
:103AD000204200D13AE6FEF70DFF411B0320642986
:103AE000F5D9BBE03068C00600D484E05E48A6E0AB
:103AF0008A02120F5B4B9A5C0902890F491CF3681A
:103B0000049C234200D097E03068C00600D592E0C4
:103B1000564891E0012081433160FEF7EBFE0546F7
:103B20003068400700D415E6FEF7E4FE411B032091
:103B30000229F5D992E001218843B0604803514938
:103B40000A6882430A60FEF7D5FE0546B068800722
:103B500000D410E6FEF7CEFE411B03200229F5D962
:103B60007CE01F2000027168814307980069000211
:103B700008437060EEE5306DB8433065039CA102E8
:103B8000306D884305E0A002316D01433165306D31
:103B900038433065FEF7AEFE054602986402384FA2
:103BA00000280FD0306D20420FD1FEF7A3FE411B3D
:103BB0000320B942F6D951E0FEF79CFE411B0320D9
:103BC000B9424BD8306D2042F6D1019800280799B0
:103BD00000D0CCE5B06B009A9043B063C7E57C069B
:103BE0003068204200D1E5E5FEF784FE411B03204A
:103BF0000229F5D932E01D4821E0FD200004F168DA
:103C00008143079B2C330DCB084310431843F060CE
:103C10002748401C316801433160FEF76BFE0446C3
:103C20003068384200D0C5E5FEF764FE011B032072
:103C30000229F5D912E00C48504302F049FBF16823
:103C40000906090F0A4A515CC8400A4908600A4837
:103C50000068FFF799FA002800D17BE509B0F0BDB4
:103C600000127A007076000800093D000024F4007C
:103C7000FC6800080C0000201400002000700040C8
:103C80008813000020000140401E010E01D00120D9
:103C900070470749074A5060074803680B400321F3
:103CA0008907591801600020906007211160704752
:103CB000FFFFFF0010E000E020ED00E0B0B538228B
:103CC000825C012A01D10220B0BD024638320223B3
:103CD000537001231370006844687025AC430D686D
:103CE0002543846845605D4DA84206DC9D07A842D7
:103CF00009D05D4DA84206D00AE0594DA84202D035
:103D0000584DA84204D18025AC43496821438160C5
:103D1000002010705370B0BDB0B5002819D0044613
:103D2000054638356878002804D1002028702046E0
:103D300000F04AF80220687020680168474B9842FA
:103D400009DC0122920790420BD0474A904208D0EA
:103D50000CE00120B0BD424A904202D0414A90425C
:103D600004D170229143A2680A4300E00A4621462A
:103D70003A31984207DC01239B07984209D03A4B1D
:103D8000984206D00BE0364B984202D0354B984211
:103D900005D103231B029A432369134300E0134612
:103DA0008022934362691A430260E268C2626268D9
:103DB0008262012242610A710A704A708A70CA7076
:103DC0006A700020B0BDC04610B500680B4988423B
:103DD00005D00B49884210D11224202001E0112483
:103DE000102008490A6802430A60002120460A465A
:103DF000FFF706FA2046FFF7F7F910BD0010004064
:103E000000140040381002403921415C012912D1D0
:103E10000146393102220A700068C26801210A4352
:103E2000C2600E4A904208DC8A0790420BD00E4ACC
:103E3000904208D00CE001207047094A904202D01D
:103E4000084A904204D1826807231340062B02D00F
:103E500002680A43026000207047C046FF07014025
:103E60000014014000080140000400407047B0B554
:103E700004464020C54320680169890716D5C168FA
:103E8000890713D529463E310161012121768069D8
:103E9000800703D02046FFF7E9FF05E0204600F049
:103EA00071F8204600F06FF8002020762068016944
:103EB000490717D5C168490714D529463C31016126
:103EC0000221217680698005800F03D02046FFF70C
:103ED000CDFF05E0204600F055F8204600F053F8ED
:103EE0000020207620680169090716D5C1680907F6
:103EF00013D529463831016104212176C069800734
:103F000003D02046FFF7B2FF05E0204600F03AF864
:103F1000204600F038F80020207620680169C906A4
:103F200017D5C168C90614D5294630310161082169
:103F30002176C0698005800F03D02046FFF796FFE9
:103F400005E0204600F01EF8204600F01CF8002096
:103F5000207620680169C90708D0C168C90705D063
:103F600029463F310161204600F00EF820680169C2
:103F7000490606D5C168490603D50561204600F00B
:103F800021F8B0BD7047704780B50A4909780A4AE0
:103F9000904205D1012903D1094802F033F880BDD0
:103FA000064A904204D1002902D1054802F042F8A5
:103FB00080BDC04608000020F01700203018002007
:103FC000EC1A0020704770477047704784214058B2
:103FD00070470000F0B589B005460268D0691168E5
:103FE00020230891039319404C424C410127FB02C6
:103FF0001E462F3606900640203E701E8641264300
:1040000096685ED00291049207970595294658312B
:1040100018460F30069F074209D01A46DD48089B14
:104020001840012334461C40201800D08FE03D4644
:104030001022089B18461040474247410598006EE1
:104040000128079C00D13C46E806079F00D527467B
:10405000002F3DD00122900506407442744129464C
:10406000E802079E00D52646002E049C00D1E5E01C
:1040700080201D461840434243410806079C05988E
:1040800000D51C46002C00D179E140231D406C4234
:104090006C41490600D50794079900290FD1EFF329
:1040A000108482F3108801680A689A430A6084F3D6
:1040B00010880021C1660399C16700F01DFA09B09C
:1040C000F0BDA96E0029FAD02846884709B0F0BD96
:1040D000049802628068400600D5B6E04C880888E3
:1040E00008914B88002B0599E9D0A042E7D00794AE
:1040F000EFF31084012383F3108809256D010E6806
:104100003768AF43376084F31088EFF3108483F38C
:1041100010880D68AE689E43AE6084F31088089CDA
:10412000039DA56200248C660C66EFF3108483F374
:1041300010880B681D6895431D6084F31088022267
:104140004A66079A801A82B208461146CBE001926D
:104150001802089A104046424641F807079D284633
:104160000AD03046002809D104980362C86A18436F
:10417000C862B80704D40CE00028F5D0B80708D509
:10418000002C06D00220049A1062C86A0426064356
:10419000CE62780708D5002C06D00420049A10625D
:1041A000C86A02260643CE6202980443664266410C
:1041B00038072C4600D53446002C05D10820049A37
:1041C0001062CC6A0443CC6200939806089A0240BD
:1041D0005442544101980742059E00D025463B4673
:1041E000002D039D05D10498019A0262C86A2843F4
:1041F000C8620F46C86A0028029900D15FE71846D6
:1042000028404B424B41002800D0079307980028D4
:1042100004D1B16E002901D030468847F86A2821C0
:104220000140306882684020024051185FD130461A
:10423000FFF7CBFE0020F86209B0F0BD1005206248
:104240000598FFF7C1FE09B0F0BD0F46059E706FDF
:10425000006841688BB2002B00D130E73C88A34254
:1042600000D32CE73B46798039460068800633D47A
:10427000EFF31081012080F31088484B203334681D
:1042800025681D40256081F31088EFF3108180F3CD
:10429000108833689C6884439C6081F31088EFF336
:1042A000108180F3108833689C684025AC439C6083
:1042B00081F310880399B96200213166EFF3108110
:1042C00080F31088306803689343036081F310889B
:1042D000706FFEF7DFF8394602207066088849885B
:1042E000401A81B23046FFF76EFE09B0F0BD08906B
:1042F000EFF31081009880F310880922520133688F
:104300001C6894431C6081F31088EFF3108180F3E4
:104310001088326893688343936081F31088316E0C
:1043200001290BD1EFF31081009A82F310883268D3
:1043300013681024A343136081F31088BD62002129
:104340003166B1663168896849061DD5EFF3108181
:10435000009A82F3108832689368089883439360C8
:1043600081F31088706F00280ED00B498163FEF72F
:10437000B0F8002800D1A2E6706F816BA5E6C16E8F
:10438000002900D0A1E69AE63046FFF71EFE09B0EC
:10439000F0BDC04620010004CD4B0008DFFEFFFF4A
:1043A000B0B5002817D00446C06F002805D178208A
:1043B00000212154204600F02BF82420E0672068DB
:1043C00001680125A9430160204600F00BFC00288C
:1043D00003D02846B0BD0120B0BD606A002802D0DD
:1043E000204600F02BFB0920C00221684A68824366
:1043F0004A6088682A229043886008680122024344
:104400000A60204600F084FB05462846B0BD000047
:10441000B0B586B0002405940494039402940194EA
:1044200000681549884201D006B0B0BD01204104A2
:10443000124AD3680B43D3601168014311601168BD
:104440000140009104200590032004900394022071
:1044500002900C20019000980520000701A9FEF7AA
:104460008BF91C25284621462246FEF7C9FE284620
:10447000FEF7BAFE06B0B0BD004400402C1002406A
:10448000F0B5C36F202B10D1012300292DD0002AB5
:104490002BD0856801242603B54208D1CB0706D06E
:1044A0000369002B03D12046F0BD0220F0BD074672
:1044B00050377A8000237B633A80C164C366212130
:1044C000C167B54202D10169002901D0094900E064
:1044D0000749C166EFF3108184F310880068026811
:1044E00080241443046081F310881846F0BDC04650
:1044F000494E0008A94E00087047FEE7F0B587B0A6
:10450000174604464030059020688269D20602D4DE
:104510000027384650E006911021C1612668B16934
:10452000012089063BD40190012002908003049071
:104530000025039507E0694269412668B269202396
:1045400013402B4330D1069E701CF4D0FEF7D2F9F5
:10455000002E02D0C01BB042EDD9206842680599F8
:10456000897883691B040BD5049B1A4008D1202944
:1045700006D04168049A11434160FEF7BBF9074633
:10458000206880698006D6D4FEF7B4F9C01B1A28CB
:10459000F6D32020039901430391029DCBE7042722
:1045A0000146002906D107E00422039F1743019822
:1045B000002901D02021F16101222568A969CB05DC
:1045C00007D44B050BD4890510D4002815D107B0AA
:1045D000F0BD1302EB61174310464B05F3D5920271
:1045E000EA610822174301208905EED50120410226
:1045F000E96102210F430028E9D0A969890701D5A3
:104600000021A962A969C90703D1A96901220A4346
:10461000AA616968304A0A406A60616C3943616422
:10462000202205994A7000220A708A7007B0F0BDF6
:10463000F0B583B00F460446006881690020490741
:104640003CD41646029020464030019007E0206896
:104650008069400734D52068806940072DD4204602
:1046600039463246FFF74AFF0125002830D123683A
:104670009969890607D4FEF73DF9002FE7D0801B22
:10468000B842E8D9E3E799694907029802D5218D34
:10469000002913D19A690021D2060A4602D51022B8
:1046A000DA61042262642022DA6158680A4C04400C
:1046B0005C60019B5A70997008E0029803B0F0BDED
:1046C000606C202108436064019B597000201870C1
:1046D000284603B0F0BDC04600E800FEF0B583B048
:1046E0000446006880690027800629D415460E46D6
:1046F000029720464030019007E0206880698006DC
:1047000015D52068806980060FD4204631462A4698
:10471000FFF7F4FE0127002812D1FEF7EBF8002E78
:10472000EBD0401BB042ECD9E7E7029F08E0606C99
:10473000202108436064019A51700020107090702D
:10474000384603B0F0BD0000F0B58BB0074605AAAF
:10475000802050706B241470642500958148D02609
:104760000223049331460296FEF742FA2846FDF7EB
:10477000D1FF03973879397806AA14700727394092
:10478000800140185070009576483146049E3346AB
:10479000FEF72EFA2846FDF7BDFF039CE07838406F
:1047A00007AA50701A20107000956E48029F394673
:1047B0003346FEF71DFA607808AA1B2111708007A6
:1047C000C00E50700095674839463346FEF710FA20
:1047D000A07809AA1C2111708007C00E50700095A6
:1047E000604839463346FEF703FA0AAA042050709F
:1047F0001920107000955B4839463346FEF7F8F9EA
:10480000A17803290DD811487944097949008F44CA
:1048100006010305104802E00E4800E00C480F496D
:104820000860617803290ED80D48C046794409799B
:1048300049008F44060103050B4802E0094800E0E7
:1048400002480A4908600BB0F0BDC04600007A3D3E
:104850000000FA3E00007A3E0000FA3D9C1600205F
:104860000000FA3B0000FA3C00007A3CA016002051
:10487000F0B58BB0039007AA3A2010700A2004907C
:104880000090384DD0260127284631463B46FEF79A
:10489000AFF964200290009009AC621C28463146B2
:1048A0003B46FEF7C1F8607800284AD005AA3B20B5
:1048B0001070049800902B48D026012301933146B4
:1048C000FEF796F9029C009407AF0625254831466D
:1048D0003A462B46FEF7A8F8787807990902081897
:1048E000039A1080F878B97809020818508078790E
:1048F00008990902081890800AAA432010700498A9
:104900000090184F38463146019BFEF771F900942C
:1049100005AC3846314622462B46FEF785F86078CE
:1049200005990902081808490880E078A178090269
:104930000818064908806079069909020818044990
:1049400008800BB0F0BDC046460600204806002097
:104950004A06002080B5014602485422FBF720FC9D
:1049600080BDC046F8180020FEE77047704780B54C
:10497000FEF7ECFB80BD000070B59EB010AC382196
:104980002046FBF7D8FD00250F950E950D950C954B
:104990000B9501A82821FBF7CEFD0326F0021D4947
:1049A0000A68824301201390C302D2180A601C9542
:1049B0001B9502211A9110221492109180051D90CE
:1049C0002046FEF79FFE002803D0EFF3108072B65A
:1049D000FEE70F950E950D950C960F200B900BA8EA
:1049E0000121FEF735FD002803D0EFF3108072B6E9
:1049F000FEE708950795059585204000019001A8E0
:104A0000FEF71AFC002803D0EFF3108072B6FEE721
:104A10001EB070BD007000407047000080B50248B5
:104A2000FFF725FA80BDC046F017002080B5024888
:104A3000FFF71DFA80BDC04630180020B0B5416AAE
:104A4000CA070CD18A0714D44A071CD40A0724D4F5
:104A5000CA062CD48A0634D44A063CD44CE001223F
:104A6000520403685C689443826A22435A608A074E
:104A7000EAD50122120403685C689443C26A2243A7
:104A80005A604A07E2D50122920403685C689443A5
:104A9000026B22435A600A07DAD50122D203036867
:104AA0005C689443426B22435A60CA06D2D5012205
:104AB000120303689C689443826B22439A608A06BF
:104AC000CAD50122520303689C689443C26B2243F7
:104AD0009A604A0610D501221305026854689C4367
:104AE000056C2C4354609D4206D103235B0554683A
:104AF0009C43436C23435360090607D50121C90435
:104B0000026853688B43806C18435060B0BD00004E
:104B1000F0B583B00446064678360027F760FDF707
:104B2000E9FE03462068006800071CD5264800906F
:104B3000012002904105002220461D4600F0E0F9C8
:104B40002B4600280FD0EFF31080029981F31088D4
:104B500021680A6880239A430A6080F31088202025
:104B6000E06703202DE020680068400723D5164841
:104B700000900125A9050022204600F0C1F9002877
:104B800019D0EFF3108085F31088092149012268BC
:104B900013688B43136080F31088EFF3108085F364
:104BA000108821688A68AA438A6080F310882020D0
:104BB000B060032005E02020E067B06027666766EC
:104BC0003846377003B0F0BDFFFFFF0180B5806A43
:104BD0000146523100220A8152214252FFF7F5F973
:104BE00080BD0000F0B581B0044601680868844AC1
:104BF0000240A06823690343606918431043E269D7
:104C000010430860032738034B688343E068184368
:104C10004860A5697B4B994202D0206A284300E096
:104C200028460B252D028E68AE4306438E607648DB
:104C3000814210DD0026754881421DD074488142B2
:104C40001AD07448814216D17448C06C8007000F96
:104C500074A52E5810E07048814205D099420AD1BF
:104C60006E48C06C000A01E06C48C06C0C25054021
:104C70006B48465900E010260125E803994214D0FC
:104C8000824225D1082E00D961E000277E44367982
:104C90007600B74404576B5C735C5C5C7500FEF790
:104CA000E1FC002800D06DE095E0082E22D800211C
:104CB0000091C0467E4436797600B744041B211B20
:104CC000291B1B1B2B00FEF7CDFC002824D187E0FD
:104CD000082E46D80027C0467E4436797600B74471
:104CE000043B6140694040406B00FEF7BBFC00287C
:104CF00064D170E000200121009100280CD16FE008
:104D000046480068C00668D54B48002804D167E0D3
:104D1000FEF7C2FC002863D062685743B84260D3F4
:104D2000110388425DD8010E560800020023801945
:104D30005941FBF76DFA42494118424A9142009F9E
:104D400047D34EE0FEF798FC00281BD143E000203B
:104D50000127002816D13EE0FEF78EFC00282DD159
:104D600039E000200127002828D134E02B480068D2
:104D7000C0063CD53048002804D12CE0FEF78CFC5E
:104D8000002828D0400061684A08101801F0A0FAF5
:104D90000246103A29498A4223D201400007400FB7
:104DA000084316E01D480068C00624D522480028A4
:104DB00004D110E0FEF770FC00280CD061684A08AE
:104DC000101801F085FA014610391C4A914208D2A8
:104DD00080B22168C8603D4603E0164800289BD198
:104DE000009D0020A066E066284601B0F0BD114895
:104DF0000028C7D1EFE70F480028DFD1EBE7C04616
:104E0000F369FFEF00480040FF4B0040004C0040BA
:104E100000500040003801400044004000100240B3
:104E20007C76000801000000040000000200000081
:104E3000080000000024F40000093D00F0FF00001D
:104E400000FDFFFF00FD0F00B0B5C16F212910D19B
:104E50005221415A00290DD001465231C26C1388AB
:104E6000104C1C4003689C62921CC2640888401E5F
:104E70000880B0BDEFF31081012282F3108803682F
:104E80001C688025AC431C6081F31088EFF310810F
:104E900082F310880068026840231343036081F3A3
:104EA0001088B0BDFF010000B0B5C16F21290ED13F
:104EB0005221415A00290BD0014652310268C36C7D
:104EC0001C7894625A1CC2640888401E0880B0BDD9
:104ED000EFF31081012282F3108803681C6880259B
:104EE000AC431C6081F31088EFF3108182F31088CB
:104EF0000068026840231343036081F31088B0BD4B
:104F0000F0B585B004930F4604460068C0690840B8
:104F1000401A414241410020914200D08AE01646A9
:104F200002902046783001900A9D01200090C00236
:104F3000039007E02068C0693840C01B41424141EE
:104F4000B14242D1681CF5D0FDF7D4FC01460320E4
:104F5000002D00D16EE0049A891AA9426AD820680F
:104F600001684907E6D5C169090731D4C169039AC7
:104F70001142DFD003990162EFF31080012282F326
:104F800010880921490123681D688D431D6080F345
:104F90001088EFF3108082F3108821688B689343A8
:104FA0008B6080F31088236E03202021012B019F4A
:104FB00039D1EFF3108382F3108822681568102628
:104FC000B543156083F310882DE0029805B0F0BD5D
:104FD00008210162EFF31080009E86F310880922F9
:104FE000520123681D6895431D6080F31088EFF31C
:104FF000108086F3108822689368B343936080F32F
:105000001088206E01280CD1EFF31082012080F36C
:10501000108823681D681026B5431D6082F3108830
:1050200000E03046019F2022BA6000222266A2667C
:105030003A70F96005B0F0BD80B5BB48FEF7CAFF15
:1050400080BDC0468CB0FEF78BF8FFF795FC0027BB
:105050000A970997089707970697AE4A10680421A0
:105060000391084310601068084005900598106887
:105070008021084310601068019108400590059850
:105080001068012630431060106830400590059884
:1050900010680221084310601068084005900598C8
:1050A000052000070490340321463A46FDF71AFC18
:1050B000089721200004079070030690964806ADDB
:1050C0002946FDF759FB0997029406A8D0C0049819
:1050D0002946FDF751FB0725284639463A46FEF793
:1050E0008FF82846FEF780F88A49486830434860C0
:1050F00048683040069006980925284639463A46C1
:10510000FEF77EF828463546FEF76EF82C218348D8
:10511000475483490784FF22C23242628762076391
:1051200047638763C76382C00760476086600399EF
:10513000C16007614761079706970838FDF736F8A1
:10514000002803D0EFF3108072B6FEE7019E0298AC
:10515000079074480690714806A9FCF725FF0028BF
:1051600003D0EFF3108072B6FEE76F480C216F4A50
:1051700007624762E1235B028CC007604760816081
:10518000C76007610C38FFF70BF9002803D0EFF375
:10519000108072B6FEE76648664C674992C00560AB
:1051A00047608760C760076147610C38FDF7EAFB1D
:1051B000002803D0EFF3108072B6FEE75C480021B0
:1051C000FDF79EFB002803D0EFF3108072B6FEE7D8
:1051D000574800273946FDF7B4FB002803D0EFF30A
:1051E000108072B6FEE75548554992C00560476089
:1051F0008760C760076147610C38FDF7C3FB002873
:1052000003D0EFF3108072B6FEE74C480021FDF7A3
:1052100077FB002803D0EFF3108072B6FEE7474813
:1052200000273946FDF78DFB002803D0EFF31080EF
:1052300072B6FEE74348466143494B24620186C08B
:105240000560079706970C38FEF766FD002803D027
:10525000EFF3108072B6FEE707970697394806A964
:10526000FEF72CFD002803D0EFF3108072B6FEE7A6
:10527000364847611921364A23018CC001600797DF
:1052800006970C38FEF748FD002803D0EFF3108096
:1052900072B6FEE7079706972C4806A9FEF70EFDA3
:1052A000002803D0EFF3108072B6FEE72048FFF726
:1052B00051FB06A82C46C5700770857007714570B4
:1052C000FFF742FA049802992A46FDF70BFB1B4DA3
:1052D000284600F033FA3846394600F019FC1D48DC
:1052E00006C81DA0234600F0E9FC0C21384600F05A
:1052F0000FFC284600F012FC1248FEF785FD13480B
:10530000FEF782FD174C204600F0EAFD204600F033
:10531000CBFDFEE72C10024000080050A416002030
:1053200000240140000100207018002000440040CB
:105330004817002082665000005400409C1700204F
:1053400000780040F01700200010004030180020C6
:1053500000140040000000205374617274696E678D
:105360002E2E2E00EC1A0020B0B50446407F0028F7
:1053700043D1002941D5E07E00283ED02078801E10
:10538000062838D8800001A108588746A95300088C
:10539000A9530008AD530008C1530008C7530008C3
:1053A000DB530008F1530008002023E000202070A8
:1053B0006168204600F06CFE6068401C60601AE086
:1053C0000020E06016E000202070E168204600F038
:1053D0007BFEE068401CE0600DE000252570A168C0
:1053E000204600F08BFE6560A068401CA06002E0D3
:1053F0000020A06020700A202070B0BDB0B5044627
:105400000078811E0C2900D92BE149007944898854
:1054100049008F440C001A0028003E004400580048
:105420006D0026017E0097009D00B000BB00607FEC
:10543000002800D015E1207E002864D000202070D4
:10544000204600F065FE03200AE1607F002800D0BE
:1054500007E1607E002856D000202070204600F032
:1054600001FE04209EE0607F00284CD000202070C8
:105470006168204600F00CFE6068401C60607D2181
:105480008900884200D0EAE0204600F04DFE072067
:1054900088E0607F002836D00020E060DFE0607F99
:1054A000002830D000202070E168204600F00CFE7B
:1054B000E068401CE060022800D0D0E0204600F008
:1054C0001DFC05206EE0607F00281CD000252570A3
:1054D000A168204600F012FE6560A068401CA06034
:1054E0000A2800D0BBE0204600F00CFD082059E05F
:1054F000607F002807D00020A0602070204600F0C8
:1055000051FE06204EE00020C1432046FFF72CFF4D
:10551000B0BD617F002900D0A3E0A17E002900D1A9
:105520007DE000202070204600F0A2FD2169204689
:1055300000F0B8FD012020770E2020702069401C6B
:105540002061B0BD617F002932D0002060612DE074
:10555000617F002939D0002020706169204600F069
:10556000BDFD6069401C60611E281FD1204600F00F
:1055700015FC0B2016E0617F002934D0002020614B
:105580002070204600F04AFE0C200BE0617F0029CD
:1055900037D0002020702069502807D1204600F025
:1055A000C3FC0D20207001202077B0BD0A2057E0F9
:1055B000E17E002955D00A38042850D87844007973
:1055C000400087443A3C3F493A00E17E002948D0F8
:1055D0000A38042843D8C0467844007940008744FC
:1055E0002C2E313B2C00E17E00293AD00A380428C9
:1055F00035D8C04678440079400087441E20232DCA
:105600001E00E17E00292CD00A38042827D8C04685
:1056100078440079400087441012151F1000E17E85
:1056200000291ED00A38042819D8C04678440079C9
:105630004000874402040711020000200EE0002011
:1056400060610BE0002020706169204600F046FD9B
:105650006069401C606102E000202061207002202F
:105660002070B0BD70B50446807F002800D070BDAA
:105670000125A577216B01290ADB206A636AA26AEA
:10568000805C491E2163591E8A4203DB002102E02F
:10569000002001E0511CA162401E03280BD8C04627
:1056A000784400794000874401030531257602E003
:1056B000657600E0A5760026667707E02677204627
:1056C000FFF79CFE6677207F002804D0207F00280B
:1056D000F4D06577F2E7A661206B01280CDB226A23
:1056E000636AA16A565C401E2063581E814201DB3A
:1056F000002000E0481CA062701E03280ED8C0469F
:10570000784400794000874403050701E576D2E735
:105710002576D0E76576CEE7A576CCE70020A077A2
:1057200070BD000080B5002801D1024600E0FF22D4
:1057300001208102F548FAF7D7FE80BDF0B5A3B08D
:1057400007466420FCF7E6FF22A8AE2101700A217B
:1057500001260090019602910C461E9178210022AC
:10576000209238460D463346FDF748FB1D9022A88F
:1057700020211991017000900196029438463C4610
:105780002F461F952946209D2A463346FDF736FBB6
:105790001C9022A8102116910170009001961E986D
:1057A0000290204639462A463346FDF727FB1B90D8
:1057B00022A8B0210170009001961E9D02952194AF
:1057C00020463946209A3346FDF718FB1A9022A846
:1057D000C821017000900196029520463946209D0F
:1057E0002A463346FDF70AFB189022A805702A4680
:1057F000009001961E9C0294219F38461F9D2946C9
:105800003346FDF7FBFA179022A816990170009015
:105810000196029438462946209D2A463346FDF7D4
:10582000EDFA169022A84021017000900196029492
:1058300038461F9F39462A462C463346FDF7DEFA86
:10584000159022A881210170009001961E98029067
:10585000219839463D4622463346FDF7CFFA14904B
:1058600022A8FF210170009001961E9C0294219FA6
:1058700038462946209D2A463346FDF7BFFA139045
:1058800022A8A121017000900196029438461F9F22
:1058900039462A463346FDF7B1FA129022A8A621CE
:1058A0000170009001960294219839463C462A46A0
:1058B0003346FDF7A3FA119022A8A82101700090A9
:1058C00001961E980290219F384621462A4633466B
:1058D000FDF794FA109022A83F21017000900196E4
:1058E0001E9C029438461F9F39462A463346FDF7D0
:1058F00085FA0F9022A8A4210170009001960294CD
:10590000219839462A463346FDF778FA0E9022A8A8
:10591000D3210170009001960294219F38461F996F
:105920002A463346FDF76AFA0D9022A82A460570EA
:1059300000900196029438463D461F9F39463346F3
:10594000FDF75CFA0C9022A8D52101700090019619
:105950000294284639463D46209A3346FDF74EFAD2
:105960000B9022A8F0210170009001960294219FD3
:1059700038462946209D2A463346FDF73FFA0A90CD
:1059800022A8D921017000900196029438461F9FE9
:1059900039462A463346FDF731FA099022A82221DA
:1059A0000170009001960294219839462A463346A8
:1059B000FDF724FA089022A8DA21017000900196E0
:1059C0000294219F38461F9C21462A463346FDF704
:1059D00015FA079022A812210170009001961E98D6
:1059E00002903846274621462A463346FDF706FAF6
:1059F000069022A8DB210170009001961E9C029463
:105A0000219839463D46209A3346FDF7F7F905902F
:105A100022A819990170009001960294219F38469E
:105A20002946209A3346FDF7E9F9199022A88D21DD
:105A30000170009001962546029438463C461F9F0F
:105A40003946209A3346FDF7D9F9049022A814214B
:105A500001700090019602952046209C394622460E
:105A60003346FDF7CBF922A9AF220A7000910196C7
:105A700002951D991C9A51181B9A89181A9A89180F
:105A8000189A8918179A8918169A8918159A8918D0
:105A9000149A8918139A8918129A8918119A8918D0
:105AA000109A89180F9A89180E9A89180D9A8918D0
:105AB0000C9A89180B9A89180A9A8918099A8918D0
:105AC000089A8918079A8918069A8918059A8918D0
:105AD000199A8918049A89180F1821981F99254630
